:1000000004308A00E12C0000FF00030E8301A100F0
:100010000A08A0008A010408A2007708A300780853
:10002000A4007908A5007A08A600831383128C30F7
:100030008400001F1D280C1B2E2822088400230882
:10004000F7002408F8002508F9002608FA0020081F
:100050008A00210E8300FF0E7F0E09008A110A120A
:1000600039280A108A100A11820728340C34013406
:1000700006340C138A110A121D284430840083139D
:100080000008031951280130F800F701F70B462842
:10009000F80B45284A30F700F70B4C284F28800B07
:1000A000432808004B0EF039F7000F30060577049F
:1000B0008600000006145C28061008000608F700F9
:1000C000060E0F39F8000800831606108610061178
:1000D000831286100F3083160605F03886008312CF
:1000E00006150000061400005E207808CB000610FC
:1000F0000000061400005E207808CA0006100F30C9
:1001000083160605860083124B0EF700F030F705C4
:1001100077084A04F8007808CA00CA1B6A28481CF5
:100120008610481886140000061100000610490EBB
:10013000CA000F30CA054A08CB00522049080F39BF
:10014000CA00CB00522008000F3083160605860037
:1001500006108610061183128610061106100F3045
:10016000C4003D200130B6003608033C031CC02803
:100170000330CB0052200530C4003D20B60AB4281D
:100180000230CB0052200530C4003D20B6013608B5
:10019000033C031CD42836083120B700C8013708B7
:1001A000C9006420B60AC7288A110A12332D8E307E
:1001B000F7003708F8003608F900FA01F808031DBF
:1001C000EB287908F800F9010830F702F808031D58
:1001D000EB28F701F3280310F81BF228F90DF80DAE
:1001E000F703EB28F813080080308318BB06C00122
:1001F000C1013708BF003B08BF0636080319E429D0
:10020000BE00F7003A080319ED29BE020319892937
:10021000031C47293B08C400C4173C08C3003D0821
:10022000C200C1010310C40CC30CC20CC10CBE0B34
:100230001129BF1F1E294014012A40103E104016EC
:10024000393084008313162A4012BF1B31293E1C0B
:100250003C29C40CC30CC20CC10CF70A0319FC29BD
:100260003C29C41B3F290310C10DC20DC30DC40D91
:10027000F7030319FC2931294017A929401337082E
:10028000BF00BF1F4529C417F529C413F5293A0833
:10029000BE00F7003608BE023708C400C41738088D
:1002A000C3003908C200C1010310C40CC30CC20C46
:1002B000C10CBE0B5329BF1F6029C014012AC010F6
:1002C0003E10C0163D3084008313162AC012BF1B97
:1002D00073293E1C7E29C40CC30CC20CC10CF70A46
:1002E0000319FC297E29C41B81290310C10DC20DED
:1002F000C30DC40DF7030319FC297329C017A929DD
:10030000C0133B08BF00BF1F8729C417F529C413BA
:10031000F5293B08C400C4173C08C3003D08C200CF
:10032000BF1F9629C4134015012A4011C1013E1078
:10033000393084008313162ABF1BBF293708BF003A
:100340003E1CA929C40CC30CC20CC10CF70A03192A
:10035000FC29C11FBA29C20A031DBA29C30A031DF9
:10036000BA29C40A031DBA29C40CC30CC20CF70A6B
:100370000319FC29401B3E29C01B8029DE2980303F
:10038000C406C41FC729012A3B08BF00D429370867
:10039000BF00C408031DD429C308031DD429C20803
:1003A000031DD429F701F529C41BDE290310C10D53
:1003B000C20DC30DC40DF70BD429FC29BF1FE229C0
:1003C000C417F529C413F5293A08F7003B08C400FF
:1003D0003C08C3003D08C200F5293608F70037087D
:1003E000C4003808C3003908C2004408F8004308B4
:1003F000F9004208FA00342AF701F801F901FA017C
:10040000342AC101C209C309C409C109C10A031DB3
:100410000F2AC20A031D0F2AC30A0319C40A40186F
:100420001D29C0185F2940199529C4290008C20751
:10043000031C202AC30A031D202AC40A03193E14E0
:1004400084030008C307031C282AC40A03193E14A6
:1004500084030008801F803AC40703183E14401A22
:100460002429C01A66299C29080036080319FA2A8B
:10047000C2003A080319FA2AC202031C442A7F3038
:10048000C2070318FA2A4A2A8130C202031CFA2A38
:100490000319FA2A4208F700F801F901FA01C1012B
:1004A0003708C000C0173808BF003908BE0019302F
:1004B000C2003D08BE0203186D2A0130BF020318B6
:1004C0006D2AC00203186D2AC10203186D2AC10AE1
:1004D000C00ABF0A3D08BE079F2A3C08BF02031896
:1004E000882A0130C0020318882AC1020318882A0A
:1004F000C10AC00A3C08BF073D08BE07031C9F2A6B
:10050000BF0A031D9F2AC00A031D9F2AC10A9F2AF2
:100510003B088038C00203189E2A0130C10203182C
:100520009E2AC10A3B088038C0073C08BF07031C4D
:100530007C2AC00A031D7C2AC10A7C2A7A14C20BB9
:10054000A22AAD2A0310BE0DBF0DC00DC10D0310B0
:10055000FA0DF90DF80DC30D592A431CB52A0310E5
:10056000F80CF90CFA0CC30CB82AF7030319FA2A91
:10057000C31BE12A0310BE0DBF0DC00DC10D3D0808
:10058000BE020318CD2A0130BF020318CD2AC002D3
:100590000318CD2AC102031CF02A3C08BF0203182D
:1005A000D82A0130C0020318D82AC102031CF02A3D
:1005B0003B088038C0020318E12A0130C102031C45
:1005C000F02AFA0A031DF02AF90A031DF02AF80A94
:1005D000031DF02AF70A0319FA2AF80CF90CFA0C91
:1005E0003708C2003B08C206C21FF82AF817FE2AC5
:1005F000F813FE2AF701F801F901FA01080043088F
:1006000003196F2BCB00470803196F2BCB07031877
:10061000102B7F30CB02031C6F2B03196F2B142B75
:100620008130CB0703186F2B4B08F700F801F90155
:10063000FA014408CF00CF174508CE004608CD0088
:100640001830CB00CC014D1C3D2B4A08FA07031C87
:100650002F2BF90A031D2F2BF80A0319CC17490871
:10066000F907031C362BF80A0319CC174808C500F4
:10067000C5174508F8070318CC17CC0DF80CF90C72
:10068000FA0CCF0CCE0CCD0C0310CB0B222B01306F
:10069000F70703186F2BF81B542BCF0DFA0DF90D2C
:1006A000F80DF70303196F2BCF1F652BFA0A031DF3
:1006B000652BF90A031D652BF80A031D652BF80C41
:1006C000F90CFA0CF70A03196F2B4408CC00480800
:1006D000CC06CC1F6D2BF817732BF813732BF70177
:1006E000F801F901FA010800450B772B7A2B40300D
:1006F000C6007B2BC60101304402C607460880387D
:10070000C700C8014708C900642008004308073A29
:100710000319942B0B3A0319992B063A0319A12BB1
:10072000023A0319A72BAC2B0130C400C500742377
:10073000B12BC8010130C90064200230C4003D2043
:10074000B12B0130C4000230C5007423B12BC801A5
:100750001030C9006420B12B0130C8004308C90023
:10076000642008008318B72B4B3084008313F701F3
:10077000F801F901FA01CB01CC01CD01CE014A0803
:100780004904480447040319F52B2030CF00031017
:10079000C30DC40DC50DC60DCB0DCC0DCD0DCE0DAD
:1007A0004A084E02031DDE2B49084D02031DDE2BB5
:1007B00048084C02031DDE2B47084B02031CEF2B9D
:1007C0004708CB024808031C480FCC024908031C09
:1007D000490FCD024A08031C4A0FCE020314F70D3D
:1007E000F80DF90DFA0DCF0BC72B4B088000840ACA
:1007F0004C088000840A4D088000840A4E0880005E
:1008000008000408BB003A08BD000319202C390871
:10081000C6003808C5003708C4003608C300CA013E
:10082000C9012030C8008230C700FF227A08B90011
:100830007908B8007808B7007708B600BD0B072C18
:100840003908C6003808C5003708C4003608C30098
:100850004308B63CC300FA014408C700C41703109C
:10086000C40CC50CC60CFA0CF90CF80CF70CC30B35
:100870002F2CC71F462CF709F809F909FA09F70ABE
:100880000319F80A0319F90A0319FA0A7A08B900D0
:100890007908B8007808B7007708B600B91F5D2C52
:1008A000BB03BB16B609B709B809B909B60A0319DB
:1008B000B70A0319B80A0319B90A3B30C2009A30C3
:1008C000C100CA30C000BF010A30BD003A08031998
:1008D000BB0A83143630840083133908C6003808F5
:1008E000C5003708C4003608C3004208CA004108E2
:1008F000C9004008C8003F08C700B2237808F708BD
:10090000031D952C3A0A3D020319952C3B08031947
:10091000972C0F393D0203198F2C0318C72CBB1BD2
:10092000C72C3B1B972C2030C32C2030BB05BB1E93
:10093000A52CBB123A08031DBB037708BB002D3062
:10094000C30086233B08F700BB013A083D02031DA4
:10095000B32C7708BB002E30C30086233B08F7007A
:100960002030BB0500303030BB1EC32CBB123A0810
:10097000031DBB037708BB002D30C30086233B0853
:10098000F700BB013030F7077708C30086238310D8
:100990004208C6004108C5004008C4003F08C30023
:1009A000CA01C901C8010A30C700B2237A08C200CF
:1009B0007908C1007808C0007708BF00BD0B692C1A
:1009C0000800A701FA30A800AA01A901AC01AB01F7
:1009D000B001AF01AE01AD01B401B301B201B1018B
:1009E000FF30B50083161F149F141F159F1183132A
:1009F0001F308305091283129412B512350883162D
:100A00008700831235163508831687008312B511C7
:100A10003508831687000130831294000030831656
:100A2000940083129001F800920000308316920027
:100A3000F030831297059D05033083168500003042
:100A40008600831286011F139F1783169F17831238
:100A50001F1483161F109F101F119F110C17C030F9
:100A600083128B04A4280030F8001F08C7397804CB
:100A70009F000630F700F70B3B2D0000A701270869
:100A8000133C031C6D2D1F151F19442D83161E08C2
:100A90008312A9001E08AA002A08B7002908B60078
:100AA000D72083103008B9002F08B8002E08B700EF
:100AB0002D08B6007A08BD007908BC007808BB0094
:100AC0007708BA00F4207A08B0007908AF007808F7
:100AD000AE007708AD00A70A3F2D3008B9002F08F7
:100AE000B8002E08B7002D08B600BD01BC012030AB
:100AF000BB008330BA0035227A08B0007908AF0015
:100B00007808AE007708AD003008C6002F08C50091
:100B10002E08C4002D08C300FB30CA00FF30C900F6
:100B20001F30C8007830C700FF227A08B00079086B
:100B3000AF007808AE007708AD000C30C300862304
:100B4000893084003008B9002F08B8002E08B7009B
:100B50002D08B6000230BA0001242030C3008623DD
:100B60005630C30086235230F700F70BB52DB82D51
:100B700000000830F8001F08C73978049F000630CD
:100B8000F700F70BC12D0000A7012708133C031C39
:100B9000F32D1F151F19CA2D83161E088312AB00D3
:100BA0001E08AC002C08B7002B08B600D720831015
:100BB0003408B9003308B8003208B7003108B6006D
:100BC0007A08BD007908BC007808BB007708BA0035
:100BD000F4207A08B4007908B3007808B2007708E6
:100BE000B100A70AC52D3408B9003308B80032088F
:100BF000B7003108B600BD01BC012030BB00833016
:100C0000BA0035227A08B4007908B3007808B20037
:100C10007708B1003408C6003308C5003208C400A4
:100C20003108C3001430CA002830C9002030C80081
:100C30007730C700FF227A08B4007908B30078083B
:100C4000B2007708B100B7012808B600D7203408F1
:100C5000B9003308B8003208B7003108B6007A0886
:100C6000BD007908BC007808BB007708BA003522BF
:100C70007A08B4007908B3007808B2007708B100A8
:100C80003408C6003308C5003208C4003108C30068
:100C9000CA01C9017A30C8008830C700FF227A082B
:100CA000B4007908B3007808B2007708B1000A30C0
:100CB000C3008623893084003408B9003308B800A3
:100CC0003208B7003108B6000230BA0001242030E3
:100CD000C30086236D30C30086234130C3008623C2
:0A0CE000FA30C4003D20332D6300FC
:02400E003A3F37
:00000001FF
;PIC16F877
;CRC=3FF7  CREATED="26-Ara-20 12:49"
