:1000000005308A00132D0000831809283E30840033
:100010008313F701F801F901FA01BE01BF01C00124
:10002000C1013D083C043B043A0403194728203031
:10003000C2000310B60DB70DB80DB90DBE0DBF0D42
:10004000C00DC10D3D084102031D30283C0840028F
:10005000031D30283B083F02031D30283A083E02AA
:10006000031C41283A08BE023B08031C3B0FBF0299
:100070003C08031C3C0FC0023D08031C3D0FC1029D
:100080000314F70DF80DF90DFA0DC20B19283E08EF
:100090008000840A3F088000840A40088000840AA7
:1000A000410880008A110A126E2DB630F700FA015D
:1000B000F901F8013A083B043C043D04031D6228A1
:1000C000F7016F280310F81B6E28BA0DBB0DBC0D8D
:1000D000BD0DFA0DF90DF80DF70B6228F8138A1112
:1000E0000A127F2D80308318D806DD01DE01540806
:1000F000DC005808DC06530803196229DB00F7000E
:10010000570803196B29DB0203190729031CC528AB
:100110005808E100E1175908E0005A08DF00DE0145
:100120000310E10CE00CDF0CDE0CDB0B8F28DC1F76
:100130009C285D147F295D105B105D16563084008D
:10014000831394295D12DC1BAF285B1CBA28E10CD9
:10015000E00CDF0CDE0CF70A03197A29BA28E11B40
:10016000BD280310DE0DDF0DE00DE10DF7030319CF
:100170007A29AF285D1727295D135408DC00DC1F9E
:10018000C328E1177329E11373295708DB00F7002F
:100190005308DB025408E100E1175508E000560857
:1001A000DF00DE010310E10CE00CDF0CDE0CDB0BEA
:1001B000D128DC1FDE28DD147F29DD105B10DD1661
:1001C0005A30840083139429DD12DC1BF1285B1C58
:1001D000FC28E10CE00CDF0CDE0CF70A03197A298D
:1001E000FC28E11BFF280310DE0DDF0DE00DE10D03
:1001F000F70303197A29F128DD172729DD13580899
:10020000DC00DC1F0529E1177329E1137329580865
:10021000E100E1175908E0005A08DF00DC1F14294B
:10022000E1135D157F295D11DE015B1056308400FE
:1002300083139429DC1B3D295408DC005B1C27290F
:10024000E10CE00CDF0CDE0CF70A03197A29DE1F43
:100250003829DF0A031D3829E00A031D3829E10A7D
:10026000031D3829E10CE00CDF0CF70A03197A2989
:100270005D1BBC28DD1BFE285C298030E106E11FE8
:1002800045297F295808DC0052295408DC00E10880
:10029000031D5229E008031D5229DF08031D5229BE
:1002A000F7017329E11B5C290310DE0DDF0DE00D62
:1002B000E10DF70B52297A29DC1F6029E117732918
:1002C000E11373295708F7005808E1005908E000C6
:1002D0005A08DF0073295308F7005408E100550855
:1002E000E0005608DF006108F8006008F9005F08C8
:1002F000FA00B229F701F801F901FA01B229DE0189
:10030000DF09E009E109DE09DE0A031D8D29DF0AA4
:10031000031D8D29E00A0319E10A5D189B28DD18E9
:10032000DD285D19132942290008DF07031C9E29D7
:10033000E00A031D9E29E10A03195B1484030008E7
:10034000E007031CA629E10A03195B1484030008D3
:10035000801F803AE10703185B145D1AA228DD1A9A
:10036000E4281A2908005008D7005408D706D71FD8
:10037000BE2903110310D01B0314F1295008D70024
:100380005308D8004F08D8020319CC29D71FF129E8
:100390000308013A8300F1295408D8005008D80214
:1003A0000319D829D71FF1290308013A8300F1293D
:1003B0005508D8005108D8020319E429D71FF1299C
:1003C0000308013A8300F1295608D8005208D802E0
:1003D0000319F029D71FF1290308013A8300F129F5
:1003E0000310080053080319B72ADF005708031940
:1003F000B72ADF02031C012A7F30DF070318B72A60
:10040000072A8130DF02031CB72A0319B72A5F08C5
:10041000F700F801F901FA01DE015408DD00DD17EB
:100420005508DC005608DB001930DF005A08DB02F3
:1004300003182A2A0130DC0203182A2ADD020318D5
:100440002A2ADE0203182A2ADE0ADD0ADC0A5A08F2
:10045000DB075C2A5908DC020318452A0130DD025B
:100460000318452ADE020318452ADE0ADD0A590868
:10047000DC075A08DB07031C5C2ADC0A031D5C2A24
:10048000DD0A031D5C2ADE0A5C2A58088038DD027A
:1004900003185B2A0130DE0203185B2ADE0A5808C3
:1004A0008038DD075908DC07031C392ADD0A031DE3
:1004B000392ADE0A392A7A14DF0B5F2A6A2A0310E6
:1004C000DB0DDC0DDD0DDE0D0310FA0DF90DF80D61
:1004D000E00D162A601C722A0310F80CF90CFA0CB5
:1004E000E00C752AF7030319B72AE01B9E2A0310B4
:1004F000DB0DDC0DDD0DDE0D5A08DB0203188A2A48
:100500000130DC0203188A2ADD0203188A2ADE027F
:10051000031CAD2A5908DC020318952A0130DD02BC
:100520000318952ADE02031CAD2A58088038DD0224
:1005300003189E2A0130DE02031CAD2AFA0A031DAD
:10054000AD2AF90A031DAD2AF80A031DAD2AF70AE0
:100550000319B72AF80CF90CFA0C5408DF005808F4
:10056000DF06DF1FB52AF817BB2AF813BB2AF701ED
:10057000F801F901FA0108004F0803192C2BD700E4
:10058000530803192C2BD7070318CD2A7F30D70225
:10059000031C2C2B03192C2BD12A8130D7070318CD
:1005A0002C2B5708F700F801F901FA015008DB007D
:1005B000DB175108DA005208D9001830D700D801EB
:1005C000591CFA2A5608FA07031CEC2AF90A031DDB
:1005D000EC2AF80A0319D8175508F907031CF32A5F
:1005E000F80A0319D8175408D100D1175108F80791
:1005F0000318D817D80DF80CF90CFA0CDB0CDA0C30
:10060000D90C0310D70BDF2A0130F70703182C2B66
:10061000F81B112BDB0DFA0DF90DF80DF70303197B
:100620002C2BDB1F222BFA0A031D222BF90A031D98
:10063000222BF80A031D222BF80CF90CFA0CF70AEE
:1006400003192C2B5008D8005408D806D81F2A2B81
:10065000F817302BF813302BF701F801F901FA01E4
:1006600008008E30F7005008F8004F08F900FA0132
:10067000D01F3F2BF809F909F90A0319F80AF808FD
:10068000031D4C2B7908F800F9010830F702F8082F
:10069000031D4C2BF701552B0310F81B532BF90DA1
:1006A000F80DF7034C2BD01FF81308003D08C100CC
:1006B0003C08C0003B08BF003A08BE004108D20019
:1006C0004008D1003F08D0003E08CF00D601D50138
:1006D000D4017F30D300B3210319ED2CD0013E307B
:1006E000CF004F0884008313501883177E3080009A
:1006F00083144108D6004008D5003F08D4003E08C6
:10070000D300DA01D901D8017F30D70072207A08EE
:10071000D2007908D1007808D0007708CF00831084
:100720004108D6004008D5003F08D4003E08D30059
:10073000DA01D901D8017F30D70072205208D600E3
:100740005108D5005008D4004F08D3007A08DA00C9
:100750007908D9007808D8007708D700F2217A08FC
:10076000C1007908C0007808BF007708BE004108C2
:10077000D2004008D1003F08D0003E08CF00410819
:10078000D6004008D5003F08D4003E08D300BC2264
:100790007A08CD007908CC007808CB007708CA0029
:1007A0009930D2004730D1008A30D0007F30CF005E
:1007B0004D08D6004C08D5004B08D4004A08D30099
:1007C000BC227A08D2007908D1007808D0007708D6
:1007D000CF0083107A08D6007908D5007808D400B5
:1007E0007708D300DA01D901D8018030D700722010
:1007F0007A08C5007908C4007808C3007708C200E9
:100800004C30D200F330D1003A30D0007B30CF00F2
:100810004D08D6004C08D5004B08D4004A08D30038
:10082000BC227A08D2007908D1007808D000770875
:10083000CF0083107A08D6007908D5007808D40054
:100840007708D3002B30DA009D30D900DF30D80094
:100850007E30D70072207A08C9007908C80078086D
:10086000C7007708C6004908D2004808D1004708E9
:10087000D0004608CF004D08D6004C08D5004B08E4
:10088000D4004A08D300BC227A08D2007908D100EB
:100890007808D0007708CF0083107A08D60079084E
:1008A000D5007808D4007708D300DA01D901D8013F
:1008B0007F30D70072207A08C9007908C80078080C
:1008C000C7007708C6004108D2004008D1003F08A1
:1008D000D0003E08CF004508D6004408D5004308A4
:1008E000D4004208D300BC227A08D2007908D10093
:1008F0007808D0007708CF007A08D6007908D500AC
:100900007808D4007708D3004908DA004808D900ED
:100910004708D8004608D700F2217A08C5007908B0
:10092000C4007808C3007708C200D0013A30CF0075
:100930004F0884008313501883177E300002CE00C6
:10094000CE1FB32C4E08003CD001CF00CF1BD003EC
:1009500031237708C6007808803AC7007908C800B4
:100960007A08C900C12CD0014E08CF00CF1BD0039C
:1009700031237A08C9007908C8007808C7007708C9
:10098000C6004908D2004808D1004708D0004608F0
:10099000CF001830D6007230D5003130D4007E3010
:1009A000D300BC2283104508D6004408D500430874
:1009B000D4004208D3007A08DA007908D900780810
:1009C000D8007708D70072207A08C5007908C400DB
:1009D0007808C3007708C200F12CC501C401C30127
:1009E000C2014208F7004308F8004408F90045082E
:1009F000FA008A110A12A22D3630840083130008EF
:100A00000319102D0130F800F701F70B052DF80B35
:100A1000042D4A30F700F70B0B2D0E2D800B022D05
:100A20008A110A12582EA9014030A8001C30A700D4
:100A30008C30A600BD30AD003B30AC007E30AB004A
:100A40007930AA00C130B1009A30B000AD30AF00AB
:100A50007730AE002730B500B630B4006230B30056
:100A60006F30B20083161F149F141F159F1183133C
:100A70001F30830501308500003086008312860117
:100A80001F139F1783169F1783121F1483161F109F
:100A90009F101F119F110030F80083121F08C739E3
:100AA00078049F000630F700F70B542D00001F1547
:100AB0001F19582D83161E088312A0001E08A100BE
:100AC0008310B9019C30B8004030B700B601BD01B9
:100AD000BC012108BB002008BA0004287A08B9002C
:100AE0007908B8007808B7007708B6007A08BD0022
:100AF0007908BC007808BB007708BA005528831431
:100B00007A08D6007908D5007808D4007708D30091
:100B10002908DA002808D9002708D8002608D700B5
:100B200072207A08B9007908B8007808B700770809
:100B3000B6007A08BD007908BC007808BB007708C9
:100B4000BA00562B7A08A5007908A4007808A300FB
:100B50007708A2003508D2003408D1003308D0004D
:100B60003208CF002508D6002408D5002308D40079
:100B70002208D300BC227A08B9007908B8007808A6
:100B8000B7007708B6007A08D2007908D100780853
:100B9000D0007708CF002508D6002408D500230808
:100BA000D4002208D300BC2283103108D6003008BC
:100BB000D5002F08D4002E08D3007A08DA0079086F
:100BC000D9007808D8007708D70072207A08B900D1
:100BD0007908B8007808B7007708B6007A08D2001C
:100BE0007908D1007808D0007708CF002508D60012
:100BF0002408D5002308D4002208D300BC22831087
:100C00002D08D6002C08D5002B08D4002A08D300C4
:100C10007A08DA007908D9007808D8007708D70070
:100C20007220D601D501D4017F30D3007A08DA00D2
:100C30007908D9007808D8007708D700F2217A0817
:100C4000A5007908A4007808A3007708A2008314FF
:100C50002508D6002408D5002308D4002208D30094
:100C60003330DA009330D9000830D8008730D7000D
:100C700072207A08A5007908A4007808A3007708F4
:100C8000A200D201D1017030D0008330CF002508FE
:100C9000D6002408D5002308D4002208D300B321AD
:100CA000031C542E0614552E06106430B600FC2C7E
:060CB00083164B2D6300CA
:02400E003A3F37
:00000001FF
;PIC16F877
;CRC=8241  CREATED="21-Ara-20 05:51"
