:100000000C948A000C94B2000C94B2000C94B200D0
:100010000C94B2000C94B2000C94B2000C94B20098
:100020000C94B2000C94B2000C94B2000C94B20088
:100030000C94B2000C94B2000C94B2000C94B20078
:100040000C940C030C94B2000C94DA020C94B402DD
:100050000C94B2000C94B2000C94B2000C94B20058
:100060000C94B2000C94B20008000000BE92244927
:10007000123EABAAAA2ABECDCCCC4C3E00000080DA
:10008000BEABAAAAAA3E00000000BF000000803F4D
:100090000000000000084178D3BB4387D1133D190D
:1000A0000E3CC3BD4282AD2B3E68EC8276BED98F3A
:1000B000E1A93E4C80EFFFBE01C4FF7F3F0000007E
:1000C000000000000000240027002A0000000000BB
:1000D000250028002B000404040404040404020284
:1000E00002020202030303030303010204081020B7
:1000F00040800102040810200102040810200000C2
:1001000000080002010000030407000000000000D6
:100110000000290511241FBECFEFD8E0DEBFCDBF00
:1001200011E0A0E0B1E0E2E8F0E102C005900D923C
:10013000A232B107D9F721E0A2E2B1E001C01D92DD
:10014000AC3CB207E1F710E0CAE8D0E004C0219768
:10015000FE010E943908C938D107C9F70E94560329
:100160000C943F080C940000E0E0F1E02491ECEEE8
:10017000F0E09491E8EDF0E0E491EE23C9F0222361
:1001800039F0233001F1A8F4213019F1223029F19E
:10019000F0E0EE0FFF1FE453FF4FA591B4912FB78E
:1001A000F894EC91811126C090959E239C932FBFCB
:1001B00008952730A9F02830C9F0243049F720915C
:1001C00080002F7D03C0209180002F772093800036
:1001D000DFCF24B52F7724BDDBCF24B52F7DFBCF18
:1001E0002091B0002F772093B000D2CF2091B000A3
:1001F0002F7DF9CF9E2BDACFAF92BF92CF92DF92B5
:10020000EF92FF920F931F93CF93DF936C017B01CB
:100210008B01040F151FEB015E01AE18BF08C0175C
:10022000D10759F06991D601ED91FC910190F081CF
:10023000E02DC6010995892B79F7C501DF91CF9192
:100240001F910F91FF90EF90DF90CF90BF90AF90F4
:100250000895FC01538D448D252F30E0842F90E0CC
:10026000821B930B541710F0CF96089501970895B1
:10027000FC01918D828D981761F0A28DAE0FBF2F7A
:10028000B11D5D968C91928D9F5F9F73928F90E0D0
:1002900008958FEF9FEF0895FC01918D828D98173F
:1002A00031F0828DE80FF11D858D90E008958FEF7C
:1002B0009FEF0895FC01918D228D892F90E0805C45
:1002C0009F4F821B91098F73992708958FE291E0C8
:1002D0000E945A0121E0892B09F420E0822F089521
:1002E00080E090E0892B29F00E94660181110C9436
:1002F00000000895FC01A48DA80FB92FB11DA35AC9
:10030000BF4F2C91848D90E001968F739927848F35
:10031000A689B7892C93A089B1898C918370806458
:100320008C93938D848D981306C00288F389E02DF9
:1003300080818F7D80830895EF92FF920F931F93AA
:10034000CF93DF93EC0181E0888F9B8D8C8D981388
:100350001AC0E889F989808185FF15C09FB7F89494
:10036000EE89FF896083E889F989808183708064E0
:1003700080839FBF81E090E0DF91CF911F910F912B
:10038000FF90EF900895F62E0B8D10E00F5F1F4F3A
:100390000F731127E02E8C8D8E110CC00FB607FC49
:1003A000FACFE889F989808185FFF5CFCE010E94D7
:1003B0007A01F1CFEB8DEC0FFD2FF11DE35AFF4FCA
:1003C000F0829FB7F8940B8FEA89FB898081806265
:1003D000CFCFCF93DF93EC01888D8823B9F0AA8922
:1003E000BB89E889F9898C9185FD03C0808186FDF0
:1003F0000DC00FB607FCF7CF8C9185FFF2CF80813F
:1004000085FFEDCFCE010E947A01E9CFDF91CF9138
:1004100008953FB7F8948091270190912801A09109
:100420002901B0912A0126B5A89B05C02F3F19F0DC
:100430000196A11DB11D3FBFBA2FA92F982F882764
:10044000BC01CD01620F711D811D911D42E0660F3F
:10045000771F881F991F4A95D1F708958F929F9211
:10046000AF92BF92CF92DF92EF92FF920E94090269
:100470004B015C018AEFC82ED12CE12CF12C0E949B
:100480000902681979098A099B09683E7340810548
:100490009105A8F321E0C21AD108E108F10888EE1D
:1004A000880E83E0981EA11CB11CC114D104E10484
:1004B000F10429F7FF90EF90DF90CF90BF90AF90BD
:1004C0009F908F900895FC0101900020E9F73197EB
:1004D000AF01481B590BBC018FE291E00C94FC006A
:1004E0008F929F92AF92BF920F931F93CF93DF9300
:1004F000CDB7DEB7A1970FB6F894DEBF0FBECDBF64
:1005000019A2423008F44AE08E010F5D1F4F842E7D
:10051000912CB12CA12CA50194010E941708E62F63
:10052000B901CA01EA30F4F4E05DD801EE938D011F
:10053000232B242B252B79F790E080E0109719F0DE
:10054000CD010E946302A1960FB6F894DEBF0FBEE4
:10055000CDBFDF91CF911F910F91BF90AF909F9032
:100560008F900895E95CE1CF1F920F920FB60F9222
:1005700011242F933F934F935F936F937F938F93A8
:100580009F93AF93BF93EF93FF938FE291E00E940D
:100590007A01FF91EF91BF91AF919F918F917F91E0
:1005A0006F915F914F913F912F910F900FBE0F90E0
:1005B0001F9018951F920F920FB60F9211242F9330
:1005C0008F939F93EF93FF93E0913F01F091400150
:1005D0008081E0914501F091460182FD1BC0908130
:1005E000809148018F5F8F7320914901821741F0FC
:1005F000E0914801F0E0E15DFE4F958F8093480166
:10060000FF91EF919F918F912F910F900FBE0F90BF
:100610001F9018958081F4CF1F920F920FB60F9202
:1006200011242F933F938F939F93AF93BF93809108
:10063000230190912401A0912501B09126013091D0
:10064000220123E0230F2D3758F50196A11DB11D7E
:10065000209322018093230190932401A0932501EC
:10066000B09326018091270190912801A091290142
:10067000B0912A010196A11DB11D8093270190938D
:100680002801A0932901B0932A01BF91AF919F91B6
:100690008F913F912F910F900FBE0F901F90189543
:1006A00026E8230F0296A11DB11DD2CF789484B500
:1006B000826084BD84B5816084BD85B5826085BD5E
:1006C00085B5816085BD80916E00816080936E00EC
:1006D00010928100809181008260809381008091DE
:1006E000810081608093810080918000816080938F
:1006F00080008091B10084608093B1008091B0004F
:1007000081608093B00080917A00846080937A0049
:1007100080917A00826080937A0080917A00816073
:1007200080937A0080917A00806880937A0010929A
:10073000C100E0913F01F091400182E08083E091AF
:100740003B01F0913C011082E0913D01F0913E01AE
:100750008FEC808310924701E0914301F0914401B6
:1007600086E08083E0914101F091420180818061C7
:100770008083E0914101F091420180818860808313
:10078000E0914101F0914201808180688083E09195
:100790004101F091420180818F7D8083ECEEF0E099
:1007A0002491E8EDF0E08491882399F090E0880F9F
:1007B000991FFC01EE53FF4FA591B491FC01E45346
:1007C000FF4F859194918FB7F894EC91E22BEC93C5
:1007D0008FBF80E4382E0FEF13E0C0E0D0E03092FE
:1007E0007C0080917A00806480937A0080917A0006
:1007F00086FDFCCF90917800809179008927982719
:100800008927B801681B790B072E000C880B990B00
:100810000E946B069B01AC0160E070EC8FE794E4F2
:100820000E94C80520E030E040E85FE30E945605E2
:1008300020E030E04AE754E40E9470070E94280755
:100840006B017C0127E236EB42EE57E30E94700712
:10085000A70196010E947007A70196010E947007E8
:100860004B015C0121EC3AE94DEA5BEBC701B601B3
:100870000E9470072DEB3BE34EEF5CE30E945705AF
:100880009B01AC01C501B4010E9457059B01AC015D
:1008900060E070E080E89FE30E94C80523E333E94D
:1008A00048E853E40E9456056B017C014B015C0152
:1008B000C0922B01D0922C01E0922D01F0922E01DA
:1008C0000E942E02A7019601C701B6010E94DD0712
:1008D000882349F182E191E00E9463028EE191E078
:1008E0000E94630220E030E040ED51E460912B0172
:1008F00070912C0180912D0190912E010E941B0777
:1009000018160CF0A4C081E00E94B4000E942E02D0
:10091000209709F464CF0E946601882309F45FCF11
:100920000E9400005CCF26013701E89477F82FEF92
:100930003FEF4FE75FE7C301B2010E94DD0781117E
:100940000DC02FEF3FEF4FE75FE7C301B2010E94F9
:10095000C30518161CF486E191E0BECF2FEF3FEFE0
:100960004FE75FE4C701B6010E941B0718161CF48D
:100970008AE191E0B1CF2FEF3FEF4FE75FECC70186
:10098000B6010E94C30587FDF3CF20E030E0A90146
:10099000C701B6010E94C30587FF0BC06DE28FE25D
:1009A00091E00E949C0146015701B7FAB094B7F854
:1009B000B0942AE037ED43EA5BE3C501B4010E943D
:1009C00057054B015C010E943A066B017C010E94B5
:1009D00069069B01AC01C501B4010E9456054B019B
:1009E0005C014AE0C701B6010E9470026EE28FE22C
:1009F00091E00E949C0120E030E040E251E4C5011A
:100A0000B4010E9470074B015C010E943A066B0121
:100A1000F12CE12C4AE0C701B6010E947002C70127
:100A2000B6010E9469069B01AC01C501B4010E9498
:100A3000560520E030E040E251E40E9470070E9439
:100A40003A0690E080E04AE00E94700247CF80E0E2
:100A50005BCFEFE2F1E01382128288EE93E0A0E038
:100A6000B0E084839583A683B78384E091E091838B
:100A7000808385EC90E09587848784EC90E097876D
:100A8000868780EC90E0918B808B81EC90E0938B5B
:100A9000828B82EC90E0958B848B86EC90E0978B38
:100AA000868B118E128E138E148E08955058BB278C
:100AB000AA270E946E050C94E1060E94D30638F026
:100AC0000E94DA0620F039F49F3F19F426F40C94C2
:100AD000D0060EF4E095E7FB0C94CA06E92F0E94BD
:100AE000F20658F3BA17620773078407950720F0D8
:100AF00079F4A6F50C9414070EF4E0950B2EBA2F9A
:100B0000A02D0B01B90190010C01CA01A001112413
:100B1000FF27591B99F0593F50F4503E68F11A16BF
:100B2000F040A22F232F342F4427585FF3CF469550
:100B300037952795A795F0405395C9F77EF41F1672
:100B4000BA0B620B730B840BBAF09150A1F0FF0F3C
:100B5000BB1F661F771F881FC2F70EC0BA0F621F28
:100B6000731F841F48F4879577956795B795F79518
:100B70009E3F08F0B0CF9395880F08F09927EE0FAD
:100B80009795879508950E94A60608F481E0089538
:100B90000E94DC050C94E1060E94DA0658F00E94DF
:100BA000D30640F029F45F3F29F00C94CA06511196
:100BB0000C9415070C94D0060E94F20668F3992352
:100BC000B1F3552391F3951B550BBB27AA27621749
:100BD0007307840738F09F5F5F4F220F331F441F56
:100BE000AA1FA9F335D00E2E3AF0E0E832D091508A
:100BF0005040E695001CCAF72BD0FE2F29D0660F77
:100C0000771F881FBB1F261737074807AB07B0E8B9
:100C100009F0BB0B802DBF01FF2793585F4F3AF0BF
:100C20009E3F510578F00C94CA060C9415075F3F5F
:100C3000E4F3983ED4F3869577956795B795F79545
:100C40009F5FC9F7880F911D9695879597F908952D
:100C5000E1E0660F771F881FBB1F621773078407C9
:100C6000BA0720F0621B730B840BBA0BEE1F88F7D8
:100C7000E09508950E94FA0688F09F5798F0B92FE2
:100C80009927B751B0F0E1F0660F771F881F991FC1
:100C90001AF0BA95C9F714C0B13091F00E94140748
:100CA000B1E008950C941407672F782F8827B85F58
:100CB00039F0B93FCCF3869577956795B395D9F719
:100CC0003EF490958095709561957F4F8F4F9F4F23
:100CD0000895E89409C097FB3EF49095809570952F
:100CE00061957F4F8F4F9F4F9923A9F0F92F96E978
:100CF000BB279395F695879577956795B795F111ED
:100D0000F8CFFAF4BB0F11F460FF1BC06F5F7F4F89
:100D10008F4F9F4F16C0882311F096E911C077239B
:100D200021F09EE8872F762F05C0662371F096E8A4
:100D3000862F70E060E02AF09A95660F771F881F73
:100D4000DAF7880F9695879597F90895990F000817
:100D5000550FAA0BE0E8FEEF16161706E807F9078D
:100D6000C0F012161306E407F50798F0621B730B28
:100D7000840B950B39F40A2661F0232B242B252BA9
:100D800021F408950A2609F4A140A6958FEF811D4C
:100D9000811D089597F99F6780E870E060E00895ED
:100DA0009FEF80EC089500240A9416161706180683
:100DB0000906089500240A9412161306140605065F
:100DC0000895092E0394000C11F4882352F0BB0FF0
:100DD00040F4BF2B11F460FF04C06F5F7F4F8F4F53
:100DE0009F4F089557FD9058440F551F59F05F3F8E
:100DF00071F04795880F97FB991F61F09F3F79F03D
:100E000087950895121613061406551FF2CF4695BE
:100E1000F1DF08C0161617061806991FF1CF869540
:100E20007105610508940895E894BB276627772724
:100E3000CB0197F908950E94A60608F48FEF089554
:100E400016F00C94E2070C94D00668940C94CA0631
:100E50000E94FA06A8F39923C1F3AEF3DF93CF9370
:100E60001F930F93FF92C92FDD2788232AF0219724
:100E7000660F771F881FDAF720E030E040E85FEB6D
:100E80009FE3883920F0803E38F021968F770E94CA
:100E90005705E8E6F0E004C00E945705E5E9F0E0F8
:100EA0000E94F0078B01BE01EC01FB2E6F57710908
:100EB0007595771F880B990B0E946B0628E132E726
:100EC00041E35FE30E948307AF2D9801AE01FF90DD
:100ED0000F911F91CF91DF910E946E050C94E10656
:100EE0000E9483070C94E1060E94D30638F00E940A
:100EF000DA0620F0952311F00C94CA060C94D00663
:100F000011240C9415070E94F20670F3959FC1F30B
:100F1000950F50E0551F629FF001729FBB27F00DA7
:100F2000B11D639FAA27F00DB11DAA1F649F6627FC
:100F3000B00DA11D661F829F2227B00DA11D621F4B
:100F4000739FB00DA11D621F839FA00D611D221F05
:100F5000749F3327A00D611D231F849F600D211DE9
:100F6000822F762F6A2F11249F5750409AF0F1F06C
:100F700088234AF0EE0FFF1FBB1F661F771F881FD5
:100F800091505040A9F79E3F510580F00C94CA063D
:100F90000C9415075F3FE4F3983ED4F3869577955C
:100FA0006795B795F795E7959F5FC1F7FE2B880F7B
:100FB000911D9695879597F908950E94A606880B2E
:100FC000990B08959F3F31F0915020F487957795C4
:100FD0006795B795880F911D9695879597F9089510
:100FE000DF93CF931F930F93FF92EF92DF927B01DA
:100FF0008C01689406C0DA2EEF010E948307FE017F
:10100000E894A5912591359145915591A6F3EF016D
:101010000E946E05FE019701A801DA9469F7DF903E
:10102000EF90FF900F911F91CF91DF910895A1E272
:101030001A2EAA1BBB1BFD010DC0AA1FBB1FEE1F52
:10104000FF1FA217B307E407F50720F0A21BB30B9D
:10105000E40BF50B661F771F881F991F1A9469F719
:1010600060957095809590959B01AC01BD01CF0175
:101070000895EE0FFF1F0590F491E02D0994F89468
:02108000FFCFA0
:10108200000000009C01FC002901E9015A0138011D
:101092004C016E616E00696E66006F7666000D0A25
:0210A20000004C
:00000001FF
